:1000000088380020791F0100712001007120010053
:1000100000000000000000000000000000000000E0
:10002000000000000000000000000000712001003E
:10003000000000000000000071200100712001009C
:100040007120010071200100712001007120010068
:10005000590F01007120010071200100D50A010033
:100060007120010071200100712001007120010048
:100070007120010071200100712001007120010038
:100080007120010071200100712001007120010028
:100090007120010071200100712001007120010018
:1000A0007120010071200100712001007120010008
:1000B00010B5064C2378002B07D1054B002B02D03E
:1000C000044800E000BF0123237010BDE8010020B8
:1000D00000000000405C0100084B10B5002B03D06D
:1000E0000749084800E000BF07480368002B00D11B
:1000F00010BD064B002BFBD09847F9E7000000002D
:10010000EC010020405C0100405C010000000000A8
:1001100080B5D8B000AFF860B9607A600023AE2235
:100120005200BA1813600023AC225200BA181360B0
:100130000023AC225200BA181360DDE2AC235B004E
:10014000FB181B689B01BA68D318A8225200BA1882
:1001500013600023AE225200BA18136063E0AE238E
:100160005B00FB181B680333AE225200BA181268FA
:10017000A8214900791809688A181178924AB02094
:1001800040008446BC446244D154AE235B00FB185B
:100190001B680233AE225200BA1812680132A8213D
:1001A0004900791809688A181178874AB0204000F8
:1001B0008446BC446244D154AE235B00FB181B68E8
:1001C0000133AE225200BA1812680232A821490047
:1001D000791809688A1811787B4AB0204000844653
:1001E000BC446244D154AE235B00FB181B6803334C
:1001F000A8225200BA181268D3181978724BB0228C
:100200005200BA18D218AE235B00FB181B68D31833
:100210000A1C1A70AE235B00FB181B680433AE2265
:100220005200BA181360AE235B00FB181B683F2B0B
:1002300095DD1023AA225200BA1813608DE0AA237C
:100240005B00FB181B680F3B1A005F4BB021490095
:100250008C46BC4463449200D358A6225200BA187C
:100260001360A6235B00FB181B680722D3411A000A
:10027000A6235B00FB181B681221CB415A40A62322
:100280005B00FB181B68DB085340A4225200BA181D
:100290001360AA235B00FB181B689A1E4A4BB0210F
:1002A00049008C46BC4463449200D358A6225200B5
:1002B000BA181360A6235B00FB181B681122D341F8
:1002C0001A00A6235B00FB181B681321CB415A4080
:1002D000A6235B00FB181B689B0A5340A222520016
:1002E000BA181360AA235B00FB181B68103B1A00A6
:1002F000354BB02149008C46BC4463449200D2582F
:10030000A4235B00FB181B68D218AA235B00FB1810
:100310001B68D91F2C4BB02040008446BC4463446A
:100320008900CB58D218A2235B00FB181B68D11898
:10033000254BB02252009446BC446344AA2252008A
:10034000BA1812689200D150AA235B00FB181B68F0
:100350000133AA225200BA181360AA235B00FB18CB
:100360001B683F2B00D86AE70023AE225200BA1860
:1003700013601CE0FB68AE225200BA1812682232E9
:100380009200D158114BB02252009446BC446344B1
:10039000AE225200BA1812689200D150AE235B0010
:1003A000FB181B680133AE225200BA181360AE234B
:1003B0005B00FB181B68072BDCDD0023AE2252001C
:1003C000BA18136056E1C046D4FEFFFFB4FEFFFF2B
:1003D000CF4BB02252009446BC4463441B680222B7
:1003E000D3411A00CA4BB02149008C46BC44634437
:1003F0001B680D21CB415A40C54BB02149008C46AA
:10040000BC4463441B681621CB415340A4225200D4
:10041000BA181360BE4BB02252009446BC446344E9
:100420001A68BB4BB02149008C46BC4463445B68EE
:100430001A40B74BB02149008C46BC44634419684C
:10044000B34BB02040008446BC4463449B680B40DF
:100450005A40AF4BB02149008C46BC4463445968B4
:10046000AB4BB02040008446BC4463449B680B40C7
:100470005340A0225200BA181360A4235B00FB185B
:100480001A68A0235B00FB181B68D3189E22520039
:10049000BA1813609E4BB02252009446BC44634489
:1004A0001B690622D3411A00994BB02149008C46A2
:1004B000BC4463441B690B21CB415A40944BB0218F
:1004C00049008C46BC4463441B691921CB4153400D
:1004D000A2225200BA1813608D4BB02252009446EB
:1004E000BC4463441A698A4BB02149008C46BC4421
:1004F00063445B691A40864BB02149008C46BC447A
:1005000063441B69D943824BB02040008446BC44FD
:1005100063449B690B4053409C225200BA181360FD
:100520007B4BB02252009446BC446344DA69A22358
:100530005B00FB181B68D2189C235B00FB181B6830
:10054000D218744BAE214900791809688900CB583C
:10055000D218714BB02149008C46BC446344AE2193
:100560004900791809688900CB58D3189A2252009B
:10057000BA181360664BB02252009446BC446344E0
:100580009A69634BB02149008C46BC446344DA61EC
:100590005F4BB02252009446BC4463445A695C4BA2
:1005A000B02149008C46BC4463449A61584BB02248
:1005B00052009446BC4463441A69554BB02149002B
:1005C0008C46BC4463445A61514BB022520094465D
:1005D000BC446344DA689A235B00FB181B68D2189A
:1005E0004B4BB02149008C46BC4463441A61484BD4
:1005F000B02252009446BC4463449A68444BB021F4
:1006000049008C46BC446344DA60414BB02252003E
:100610009446BC4463445A683D4BB02149008C4623
:10062000BC4463449A603A4BB02252009446BC44A6
:1006300063441A68364BB02149008C46BC4463447D
:100640005A609A235B00FB181A689E235B00FB1814
:100650001B68D2182E4BB02149008C46BC44634421
:100660001A60AE235B00FB181B680133AE225200F8
:10067000BA181360AE235B00FB181B683F2B00DC2D
:10068000A6E60023AE225200BA18136025E0FB68EC
:10069000AE225200BA18126822329200D2581C4B75
:1006A000B02149008C46BC446344AE21490079180E
:1006B00009688900CB58D118FB68AE225200BA18DD
:1006C000126822329200D150AE235B00FB181B68E7
:1006D0000133AE225200BA181360AE235B00FB1840
:1006E0001B68072BD3DDAC235B00FB181B680133B1
:1006F000AC225200BA181360AC235B00FB181A68D6
:100700007B689A4200D219E5C046BD4658B080BD0C
:10071000B4FEFFFF0C4D0100D4FEFFFF80B584B096
:1007200000AF78607B68A822002118000B4B984727
:100730000023FB600BE00A4BFA689200D1587B68FB
:10074000FA6822329200D150FB680133FB60FB68EB
:10075000072BF0DDC046BD4604B080BD2328010054
:100760000C4E010080B588B000AFF860B9607A60C7
:10077000FB685B684022D31AFB61FA697B6893428D
:1007800000D91300BB61FB685B680833FA68D318B3
:10079000BA69B9681800224B9847FB685A687B68A9
:1007A000D3183F2B06D8FB685A687B68D218FB68C1
:1007B0005A6031E0FB6808331900FB680122180019
:1007C000184B98477A68BB69D31A7B607B689B0992
:1007D0007B61BA68BB69D1187A69FB681800114B54
:1007E0009847FB681A687B6901339B01D218FB6844
:1007F0001A607B683F221A40FB685A60FB68083326
:1008000018007B699A01BB69D318BA68D118FB68D4
:100810005B681A00024B9847BD4608B080BDC046D1
:10082000E72701001101000080B586B000AF7860B5
:1008300039607B681A687B685B68D2187B681A60CD
:100840007B681B68DB00FB607B685B6809225242A7
:10085000D31A3F221340BB607B685B68591C7A68DF
:1008600051607A68D31880221A727B685B680833FB
:100870007A68D018BB6804331A000021374B9847B8
:100880007B685A68BB68D3181A1D7B685A607B68FE
:100890005B68591C7A685160FA68120ED1B27A68A6
:1008A000D3180A1C1A727B685B68591C7A685160FD
:1008B000FA68120CD1B27A68D3180A1C1A727B68D3
:1008C0005B68591C7A685160FA68120AD1B27A687A
:1008D000D3180A1C1A727B685B68591C7A685160CD
:1008E000FA68D1B27A68D3180A1C1A727B68083386
:1008F00019007B685B689A097B681800184B984759
:1009000000237B6123E003233B611AE07B699A00AB
:100910003B69D3183A68D3187A687969223189001B
:100920008A58D2B21A703B69013B3B617B687A6995
:1009300022329200D358190A7B687A6922329200D7
:10094000D1503B69002BE1DA7B6901337B617B6924
:10095000072BD8DDC046BD4606B080BD2328010068
:100960001101000090B53B4CA54400AF00233A4A6A
:10097000BA181360394B7B64394B8022D2001A605D
:10098000374B384A38493948394CA0470300324A76
:10099000BA181360304BFB181B68002B03D02E4B8A
:1009A000FB181B6851E02D4B7B642D4B1B68190015
:1009B0004423FB184822BA182A482E4CA047482343
:1009C000FA182D4B110018002C4B9847244B1A682D
:1009D0003B1D244925482A4CA04703001E4ABA184B
:1009E00013601D4BFB181B68002B03D01A4BFB1820
:1009F0001B682AE0234B8022D2001A60214B224A36
:100A0000391D22481A4CA0470300134ABA18136034
:100A1000114BFB181B68002B03D00F4BFB181B68F6
:100A200013E00E4B7B64174B1B6819004423FB1823
:100A30004822BA1814480F4CA0474823FA18144B00
:100A4000110018000D4B984700231800BD46114BAC
:100A50009D4490BDD4F9FFFF24060000DC05000092
:100A60001C0000208C090020CC110020C04A01008D
:100A7000495A0000DDD000002C4E01006D29010014
:100A80004D890000200000208C0D0020C04C01008A
:100A9000584E01002C06000090B593B000AF002323
:100AA0007B641B4B1A681B4B1B491C481C4CA04702
:100AB00003007B647B6C002B01D07B6C24E0194B22
:100AC0001800194B9847124B1A683B1D12491348DE
:100AD000164CA04703007B647B6C002B01D07B6C21
:100AE00012E0134B1A683B1D124913480C4CA047E7
:100AF00003007B647B6C002B01D07B6C04E00F4B0C
:100B00001800094B984700231800BD4613B090BD4C
:100B10001C000020CC1100208C090020C04A0100DC
:100B200079A20000844E01008D2A01004D89000049
:100B3000200000208C0D0020C04C0100E04E010080
:100B400090B5C3B000AF00237A1DFF32136080233D
:100B50005B003B60124B1800124B984703007A1D54
:100B6000FF3213607B1DFF331B68002B03D07B1DFE
:100B7000FF331B680FE080235B003B603B003A1DA6
:100B800007482021084CA0473A1D084B11001800C7
:100B9000074B984700231800BD4643B090BDC046A0
:100BA0006C09002029A30000DDD00000204F0100C7
:100BB0006D29010090B5C3B000AF00237A1DFF324C
:100BC000136080235B003B60134BDB78134A1449AE
:100BD0001800144B984703007A1DFF3213607B1DE9
:100BE000FF331B68002B03D07B1DFF331B680FE016
:100BF00080235B003B603B003A1D084840210A4CC3
:100C0000A0473A1D094B11001800094B98470023D3
:100C10001800BD4643B090BDC04C01008C110020AF
:100C20006C090020A55D0000DDD00000444F0100EC
:100C30006D29010090B5D3B000AF0023A22252006D
:100C4000BA18136080235B003B601E4B1A687B1D43
:100C5000FF331D491D481E4CA0470300A22252002D
:100C6000BA18136080235B003B603B003A1D781D7F
:100C7000FF304021174CA0473A1D174B11001800B8
:100C8000164B9847164A17497B1DFF331800164B21
:100C900098470300A2225200BA181360A2235B00F7
:100CA000FB181B68002B04D0A2235B00FB181B68F9
:100CB00004E00E4B18000E4B984700231800BD4669
:100CC00053B090BD200000208C0D0020C04C0100CE
:100CD0004D890000DDD000007C4F01006D2901002E
:100CE0008C1100206C09002051A30000AC4F0100C2
:100CF0008D2A010090B5D5B002AFF860B9607A6076
:100D00003B607B681B689E225200BA1813609C23CC
:100D1000FB1800221A609C23FB1800225A60B023A3
:100D20005B00FB181B689A689C23FB189A60B02331
:100D30005B00FB181B68DA689C23FB18DA60B023A1
:100D40005B00FB181B681A699C23FB181A61B0230F
:100D50005B00FB181B685B69FA68927C9A189C23FD
:100D6000FB185A619423FB18180007231A0000216E
:100D7000E54B98479423FB1805331A7800210A4065
:100D8000111C20220A431A705A7800210A405A7016
:100D900000237B67FB689B7C002B17D1FB685B7B88
:100DA0009C22BA1811001800D84B984703009C22C7
:100DB0005200BA1813609C235B00FB181B68002BC1
:100DC00004D09C235B00FB181B6869E27C68BA684E
:100DD000F9688A235B00F8183B6800932300CC4C29
:100DE000A04703009C225200BA1813609C235B00AA
:100DF000FB181B68002B04D09C235B00FB181B68AE
:100E00004EE28A235B00FB1818688A235B00FB18FC
:100E100059688A235B00FB189B681A68AC235B0047
:100E2000FB181B68BB4CA04703009C225200BA1859
:100E300013609C235B00FB181B68002B04D09C23D1
:100E40005B00FB181B682BE28A235B00FB18186809
:100E50008A235B00FB1859688A235B00FB189B6898
:100E60001A68B0235B00FB181B68AB4CA04703005B
:100E70009C225200BA1813609C235B00FB181B686D
:100E8000002B04D09C235B00FB181B6808E28A231C
:100E90005B00FB1818688A235B00FB1859688A23DB
:100EA0005B00FB189B681A689C23FB189B4CA047AF
:100EB00003009C225200BA1813609C235B00FB18AD
:100EC0001B68002B04D09C235B00FB181B68E7E128
:100ED0008A235B00FB1818688A235B00FB1859689B
:100EE0008A235B00FB189B681A68AE235B00FB1823
:100EF0001B688B4CA04703009C225200BA18136059
:100F00009C235B00FB181B68002B04D09C235B0018
:100F1000FB181B68C4E1B2235B00FB181A6894231A
:100F2000F9188A235B00FB1818007E4B98470300D2
:100F30009C225200BA1813609C235B00FB181B68AC
:100F4000002B04D09C235B00FB181B68A8E18A23BC
:100F50005B00FB181800744B984703009C2252005A
:100F6000BA1813609C235B00FB181B68002B04D08D
:100F70009C235B00FB181B6892E18A235B00FB1833
:100F800018688A235B00FB1859688A235B00FB18EA
:100F90009B681A68F423FB18644CA04703009C224A
:100FA0005200BA1813609C235B00FB181B68002BCF
:100FB00004D09C235B00FB181B6871E1B4235B0029
:100FC000FB181B789BB2B422BA18F42179181800C8
:100FD000574B984703009C225200BA1813609C2379
:100FE0005B00FB181B68002B04D09C235B00FB18E4
:100FF0001B6855E19E235B00FB181C687A68B96882
:10100000F868B423FB18009323004A4CA047030060
:101010009C225200BA1813609C235B00FB181B68CB
:10102000002B04D09C235B00FB181B6838E1742361
:10103000FA187823F918F8682023009304233E4C0B
:10104000A04703009C225200BA1813609C235B0047
:10105000FB181B68002B04D09C235B00FB181B684B
:101060001EE10023A2225200BA1813600FE1782378
:10107000F918A2235B00FB181A681300DB009B1A07
:101080005B5C002B00D1F6E07823F918A2235B000B
:10109000FB181A681300DB009B1A5B5C022B0ED155
:1010A0007823F918A2235B00FB181A681300DB00F1
:1010B0009B1ACB1802331B78002B00D0DDE07B6835
:1010C0001C687823F918A2235B00FB181A68130028
:1010D000DB009B1ACA18B968F8681423FB18009340
:1010E00013002200154CA04703009C225200BA189E
:1010F00013609C235B00FB181B68002B20D09C23F3
:101100005B00FB181B68CBE023280100C15F0000D7
:1011100059790000AD880000B98B0000018D0000F6
:101120002D8E0000357D0000F5820000F99700004B
:10113000B1C600009589000081760000F9840000A6
:101140007823FA18A2235B00FB1819680B00DB0058
:101150005B1AD118C978D3181B791B020B439BB2B9
:101160005B099BB29A225200BA1813607823FA18CE
:10117000A2235B00FB1819680B00DB005B1AD11877
:10118000C978D3181B791B020B439BB21800782334
:10119000FA18A2235B00FB1819680B00DB005B1A2E
:1011A000D1184979D3189B791B020B439BB2C31802
:1011B000002B00DA1F335B1198225200BA1813601B
:1011C0004423FF33FB189A225200BA1812681A708F
:1011D00046E07823F918A2235B00FB181A68130075
:1011E000DB009B1A585C7823F918A2235B00FB18DC
:1011F0001A681300DB009B1ACB18013319784423BB
:10120000FF33FB181A789A235B00FB181B68D31A6C
:101210005B011422BA18D3184422FF32BA1814788A
:10122000202201920093002322001F4CA0470300BC
:101230009C225200BA1813609C235B00FB181B68A9
:10124000002B04D09C235B00FB181B6828E0442380
:10125000FF33FB181A784423FF33FB1801321A704E
:101260004423FF33FB181A7898235B00FB181B6894
:101270009A42AED302E0C04600E0C046A2235B0023
:10128000FB181B680133A2225200BA1813607B6F4F
:10129000A2225200BA1812689A4200D2E7E600234E
:1012A0001800BD4653B090BD09BB000090B5E44C9A
:1012B000A54406AF0023E34ABA181360E24BFB18BB
:1012C00000221A70E14BFB1807221A70E04BFB1842
:1012D00002221A70DF4BFA18DF4B100019000223AC
:1012E0001A00DE4B9847DE4BFB18DE4A13CA13C3C5
:1012F00013CA13C3DC4BFB1800221A70DB4BFB181C
:10130000DB4A13CA13C313CA13C3DA4BFA18DA4BF6
:101310001000190020231A00D04B9847B0231B015E
:10132000FB1800221A70D54BFB1800221A70D44B00
:10133000D44ABA181360002381229200BA181360AD
:1013400000233B60D04B9847BF4BFB18190000208F
:10135000CE4B98470300BB4ABA181360B94BFB1831
:101360001B68002B03D0B74BFB181B68ADE2B64BD4
:10137000FB181B7801225340DBB2002B22D0C44B58
:101380001800C44B98470300AE4ABA181360AD4B1F
:10139000FB181B68002B03D0AA4BFB181B6894E2B8
:1013A000BD4BFB181800BD4B98470300A54ABA185F
:1013B0001360A44BFB181B68002B03D0A14BFB1838
:1013C0001B6882E220230193B54BFB180093002396
:1013D000002200210020B34CA0470300994ABA180C
:1013E0001360984BFB181B68002B03D0954BFB1820
:1013F0001B686AE220230193A94BFB18203300935A
:101400000023012200210020A64CA04703008D4AA2
:10141000BA1813608B4BFB181B68002B03D0894B49
:10142000FB181B6851E2894BFB181B780A335B00E1
:101430009B4ABA18D35C1A0001231A40B0231B013F
:10144000FB18511E8A411A70804BFB181B780A3317
:101450005B000133924ABA18D35C1A0040231A4049
:10146000864BFB18511E8A411A70774BFB181900E6
:101470000120864B98470300724ABA181360714BDB
:10148000FB181B68002B03D06E4BFB181B681CE27B
:101490006D4BFB181B7801225340DBB2002B3FD071
:1014A00081496A4BFB181878002300227F4CA04723
:1014B0000300644ABA181360624BFB181B68002BC8
:1014C00003D0604BFB181B68FFE1794B1978202390
:1014D0000193684BFB180093002300220220754CF7
:1014E000A0470300574ABA181360564BFB181B68F5
:1014F000002B03D0534BFB181B68E6E1664BFB182F
:1015000018006D4B984703004E4ABA1813604D4BB4
:10151000FB181B68002B38D04A4BFB181B68D4E122
:10152000B0231B01FB181B7801225340DBB2002BB8
:101530000ED0464BFB181A78604B11001800604B18
:101540009847424BFB18424ABA1812781A701CE0AE
:101550004A4BFB181B78002B17D0554B1A78454B7C
:10156000FC185149394BFB18187823004F4CA04701
:101570000300344ABA181360324BFB181B68002B67
:1015800003D0304BFB181B689FE1304BFA18304BEF
:10159000FB1812781B789A423AD04A4A2B4BFB1818
:1015A0001B7811001800484B98470300254ABA18C9
:1015B0001360244BFB181B68F42B0BD1234BFB1837
:1015C0001B78404A11001800404B984703001D4A01
:1015D000BA1813601B4BFB181B68002B03D0194B68
:1015E000FB181B6871E1264B264ABA181360254B7D
:1015F000FB189222D200BA1832484021344CA0473E
:101600009223DB00FA18334B110018002C4B98473B
:101610000F4BFB181B788922D200BA181100180052
:101620002A4B98470300074ABA181360054BFB186A
:101630001B68002B50D0034BFB181B6845E1C046CC
:10164000DCF4FFFF040B0000FE0A0000030B0000A7
:10165000020B0000FC0A00005C510100E7270100BA
:10166000E40A000060510100010B0000CC0A0000F8
:1016700078510100AC0A000090510100FF0A0000FF
:10168000DC0500008C040000FDAD00006DBA000018
:10169000DC4F010059BF00008B040000D9C30000DB
:1016A0006C0A00001DBD00005C50010009CC000068
:1016B000B051010009BB000049C500008050010085
:1016C0006D290100CC1100207DCA000055B1000039
:1016D000DDD00000D05001007E4BFA187E4BFB1885
:1016E00012781B789A4220D17C4A7D4B7D498C46EA
:1016F000BC4463441000190040231A007A4B9847F9
:101700007A4B7B4ABA181360794BFB189222D200AD
:10171000BA1872484021774CA0479223DB00FA1890
:10172000754B11001800754B9847704B704ABA18EA
:1017300013606F4BFB189222D200BA188921C9009E
:10174000781840216B4CA0479223DB00FA186C4BB1
:1017500011001800694B98476A4BFB181B788122CF
:10176000D200BA1811001800674B98470300674A67
:10177000BA181360654BFB181B68002B03D0634B32
:10178000FB181B68A1E0594B594ABA181360584B13
:10179000FB189222D200BA188121C9007818402182
:1017A000544CA0479223DB00FA18594B1100180043
:1017B000524B984780239B0081229200BA181360F5
:1017C000464C81239B00FA1882239B00F91851484C
:1017D000404BFB181B7804934F4BFB1803934F4B64
:1017E000FB1802934E4BFB1801938923DB00FB1877
:1017F000009323004B4CA0470300444ABA181360DF
:10180000424BFB181B68002B03D0404BFB181B6896
:101810005BE0364B364ABA18136081239B00FB18F5
:101820001B681900324BFB189222D200BA18822092
:10183000800038182F4CA0479223DB00FA183A4B4F
:10184000110018002D4B984780239B003B60892393
:10185000DB00FC183A00391D34481F4BFB181B787D
:1018600004932D4BFB180393314BFB1802932C4B25
:10187000FB1801938123DB00FB1800932300294C04
:10188000A0470300214ABA181360204BFB181B68BD
:10189000002B03D01D4BFB181B6816E0134B144A9A
:1018A000BA1813603B681900114BFB189222D20042
:1018B000BA18381D0F4CA0479223DB00FA181D4BB5
:1018C000110018000D4B984700231800BD461A4B15
:1018D0009D4490BD030B0000020B0000CC110020C2
:1018E00040F9FFFF080B0000E7270100DC050000BE
:1018F0008C040000DDD00000D05001006D290100F3
:10190000EC500100010B000055B10000040B000079
:1019100008510100C04A01006C0A0000E40A0000FE
:10192000FC0A0000F50C000024510100C04C01002D
:10193000CC0A0000405101000C0B000080B582B0C1
:1019400000AFEFF310833B603B685A425341DBB278
:101950007B6072B6BFF35F8F034B00221A707B6807
:101960001800BD4602B080BD7C01002080B582B069
:1019700000AF78607B685A1E9341DBB21800BD4609
:1019800002B080BD80B582B000AF78607B6818007F
:10199000064B9847031E05D0054B01221A70BFF372
:1019A0005F8F62B6C046BD4602B080BD6D190000B3
:1019B0007C01002090B583B000AFBB1D00221A70DF
:1019C000564B00221A70BB1D1A78554B520000214D
:1019D000D152BB1D1A78534913009B009B185B0022
:1019E000A1225A54BB1D1A784E4913009B009B1824
:1019F0005B00CB18013320221A70BB1D1A784949AD
:101A000013009B009B185B00CB18023300221A8046
:101A1000BB1D1B78002B03D1FB1D00221A7003E0B5
:101A2000FB1D00221A70C046BB1D1A78FB1D1B78D7
:101A300098B23C4913009B009B185B00CB18043301
:101A4000021C1A80BB1D1A78364913009B009B1894
:101A50005B00CB18063302221A80BB1D1A7831496D
:101A600013009B009B185B00CB18083300221A80E0
:101A7000BB1D19782C4A0B00DB005B1A995C002017
:101A800001409954D118487800242040041C3E207D
:101A9000404220434870D118887800242040041C1C
:101AA000012020438870D318DA7800210A40DA70C8
:101AB000BB1D1A781C491300DB009B1ACB1804339A
:101AC00000221A70BB1D1A7817491300DB009B1AFD
:101AD000CB18053300221A70BB1D1A781249130067
:101AE000DB009B1ACB18063308221A700F4B98475D
:101AF00003001A0001235340DBB2002B01D0002366
:101B000007E0064B1B78DBB20133DAB2034B1A70E5
:101B100001231800BD4603B090BDC0461A02002044
:101B20000C020020100200200402002005340000F6
:101B300080B582B000AFFB1D00221A70354B002229
:101B40001A70FB1D1B78344A0021D154FB1D1B78F1
:101B5000324A0021D154FB1D1B78314A0021D15457
:101B6000FB1D1A782F4B92000021D152FB1D1B78D0
:101B70002C4A9B00D318023300221A80FB1D1A78CE
:101B8000294B52000021D152FB1D1B781800274B16
:101B90009847FB1D1B78264A0021D154FB1D1B785A
:101BA000244A0021D154FB1D1A78234B92000021B6
:101BB000D152FB1D1B78204A9B00D3180233002210
:101BC0001A80FB1D1A781D4B52000021D152FB1DBB
:101BD0001B7818001A4B984703001A000123534042
:101BE000DBB2002B01D000230FE00A4B1B78DBB2E5
:101BF0000133DAB2074B1A70064B1B78DBB2012BAC
:101C000002D1104B01221A7001231800BD4602B008
:101C100080BDC0461B0200203C070020400700207A
:101C2000340700203007002038070020AD200000D6
:101C3000AC040020A4040020A0040020A80400207C
:101C4000F11D00001C02002080B500AF044B1B7882
:101C5000DBB2013BDAB2024B1A70C046BD4680BD12
:101C60001A02002080B582B000AF0A4B1B78DBB2AD
:101C7000013BDAB2074B1A70FB1D064A12781A7044
:101C8000054B9847054B00221A70C046BD4602B06E
:101C900080BDC0461B0200201D3400001C02002035
:101CA00090B583B000AFFC1D2C4B98470300237008
:101CB0002B4B1B785BB2002B1EDA294B1B781A00CA
:101CC00060231340202B17D1254B5B78212B13D198
:101CD000234BDB88072B01D000233AE0FB1D1A7849
:101CE0001300DB009B1A1F4A9A181D4B9A601C4B6D
:101CF00007229A8101232CE0194B1B785BB2002B41
:101D000026DB174B1B781A0060231340202B1FD1B2
:101D1000134B5B78202B02D0222B17D018E0104BEE
:101D2000DB88072B01D0002313E00D4B0E4A1A610C
:101D3000FB1D1A781300DB009B1A0A4A9A18084BFD
:101D40009A60074B07229A81012302E0012300E0F9
:101D500000231800BD4603B090BDC046A11D000081
:101D60007C14002004020020D51D000080B500AFC7
:101D700000231800BD4680BD80B500AF00231800C9
:101D8000BD4680BD80B500AF034B1B781800034BE8
:101D90009847C046BD4680BD41070020AD200000E9
:101DA00080B582B000AF0A4B9B881A00FF23134016
:101DB00003D1FB1D00221A7003E0FB1D00221A70E4
:101DC000C046FB1D1B781800BD4602B080BDC04652
:101DD0007C14002090B583B000AFFC1D034B9847E6
:101DE00003002370C046BD4603B090BDA11D000096
:101DF00090B589B002AF0200FB1D1A70FB1D0022D6
:101E00001A703C4B984703003B61FB1D1A780F2367
:101E1000FB1839498A5C1A70FB1D1B78374AD35C62
:101E2000DBB2002B12D1FB1D1A78354B5200D35A6E
:101E30009AB2FB1D18780F23FB181978314B40001C
:101E400041184900CB5A9BB29A4205D23B6918000F
:101E50002D4B9847002349E0FB1D1A78284B520070
:101E60000021D152FB1D1B780F22BA181278514263
:101E70004A41D2B21100204AD154FB1D1B781F4A9F
:101E80000121D1543B6918001F4B9847FB1D1B785B
:101E900018001E4B9847FB1D1B78002B04D11723FD
:101EA000FB1802221A7004E01723FB1802221A7092
:101EB000C046FB1D19780F23FB181B781A009200EF
:101EC000D21893011A000B009B005B18DB01D2189B
:101ED0000F4BD218A02359001723FB1818780D4B6D
:101EE00000930B0001210C4CA04703001800BD46D5
:101EF00007B090BD3D190000A4040020AC040020F0
:101F0000A8040020A004002085190000612300001F
:101F1000200200201D1F0000154E000090B587B064
:101F200002AF39601100FB1D021C1A70BB1D0A1C98
:101F30001A70BB1D1B78022B04D10F23FB18002243
:101F40001A7004E00F23FB1800221A70C046FB1D14
:101F50001B78002B46D10F23FB181B78234AD35C38
:101F6000DBB25A425341DAB20E23FB181A703B68B7
:101F7000002B1CD10F23FB1819780E23FB181B789C
:101F80001A009200D21893011A000B009B005B18F4
:101F9000DB01D218164BD218A0235900BB1D1878AC
:101FA000144B00930B000121134CA0471BE00F239F
:101FB000FB1819780E23FB181A783B6898B20F4B60
:101FC00049008A185200011CD1520F23FB181B78BC
:101FD0000B4A0021D1540F23FB181B781800094B22
:101FE000984700E0C046BD4605B090BDA40400205F
:101FF000200200201D1F0000154E0000A00400203C
:10200000AC040020F11D000080B584B000AF396041
:102010001100FB1D021C1A70BB1D0A1C1A70BB1D8F
:102020001B78812B04D10F23FB1800221A7004E0C7
:102030000F23FB1800221A70C046FB1D1B78002BD3
:1020400025D10F23FB181A780F23FB181B78124990
:10205000CB5CDBB259424B41DBB219000F4B520053
:10206000521852000021D1520F23FB181B780C4A42
:102070000021D1540F23FB181B780A4A0021D154A8
:102080000F23FB181B781800074B984700E0C04649
:10209000BD4604B080BDC046340700203007002094
:1020A000400700203C070020AD20000090B589B01B
:1020B00002AF0200FB1D1A70FB1D00221A70FB1DEF
:1020C0001B787A4AD35CDBB2002B00D0E7E0784B78
:1020D0009847031E0AD0FB1D1A78764B5200D45A3B
:1020E000754B984703009C420BD1DBE0FB1D1A782F
:1020F000704B5200D45A714B984703009C4200D158
:10210000CFE06F4B984703003B61FB1D1A78172304
:10211000FB186C498A5C1A70FB1D19781723FB1891
:102120001A78694B49008A185200D35A002B20D1E3
:10213000664B1B8801339AB2644B1A805C4B9847FC
:1021400003001A0001235340DBB2002B03D05F4B86
:102150001B88632B08D9564B9847031E09D05B4B4D
:102160001B885B4A934204D83B691800594B984737
:1021700098E0564B00221A80FB1D1B78564AD35C10
:10218000DBB201225340DBB2002B0BD0FB1D1B78CE
:102190001722BA18127851424A41D2B21100494A64
:1021A000D15408E01723FB181B785A425341DAB286
:1021B0001723FB181A70FB1D1B783C4A0121D154D0
:1021C0003B691800434B9847FB1D19781723FB18F0
:1021D0001A783D4B49008A185200D25A0F23FB1837
:1021E000413AFF3A511E8A411A700F23FB181B789F
:1021F000002B17D02E4B9847031E09D0FB1D1C78CF
:102200002D4B9847030019002A4B6200D1520FE072
:10221000FB1D1C78294B984703001900254B6200D1
:10222000D15205E0FB1D1A78224B52000021D152F9
:10223000FB1D1B78002B04D11623FB1881221A707A
:1022400004E01623FB1881221A70C046FB1D197882
:102250001723FB181B781A009200D21893011A005A
:102260000B009B005B18DB01D2181C4BD418FB1D24
:1022700019781723FB181A78134B49008A18520053
:10228000D35A1A000F23FB1819781623FB18187855
:10229000134B009313002200124CA04702E0C046EB
:1022A00000E0C046BD4607B090BDC0463C070020D8
:1022B0006D4A000038070020954A0000794A000066
:1022C0003D1900003407002030070020420700209D
:1022D0001F0300008519000040070020B004002003
:1022E00009200000154E000080B586B000AF020046
:1022F000FB1D1A70FB1D00221A70144B9847030037
:102300007B61FB1D19781223FB18114A49008A5A78
:102310001A80FB1D1A78FB1D1B780E49CB5CDBB2C3
:1023200019000D4B520052185200D35A9BB21A009A
:102330001223FB181B88D31AFB607B691800074B1C
:102340009847FB681800BD4606B080BD3D190000E7
:10235000A8040020A4040020A00400208519000087
:1023600080B582B000AF0200FB1D1A70FB1D1B7808
:102370001800054B984703005A1E9341DBB2180022
:10238000BD4602B080BDC046E922000080B500AF66
:102390000020034B984703001800BD4680BDC0468F
:1023A0006123000090B587B000AF0200FB1D1A70DA
:1023B00000237B61FB1D00221A70FB1D1A78444923
:1023C0001300DB009B1ACB1806331A781323FB1873
:1023D000093A51424A411A703E4B98470300FB604C
:1023E000FB1D19780A23FB183B4A49008A5A1A80B8
:1023F000FB1D1A780923FB1838498A5C1A70FB1DEB
:1024000019780923FB181A78354B49008A185200AD
:10241000D35A99B20823FA180A23FB181888002304
:1024200088425B411370FB6818002E4B98470823C5
:10243000FB181B78002B10D02B4B1B78DBB2012232
:102440005340DBB2002B01D000233CE01323FB18E8
:102450001322BA1812781A70BEE7FB1D19780923E7
:10246000FB181B780A22BA181088204C1A00920018
:10247000D21893011A000B009B005B18DB01D318E4
:10248000E3181B5C1A007B6913437B61FB1D1A7800
:102490000A23FB181B88013399B20F4B5200D1520B
:1024A000FB1D1B781800124B98471323FB181B7851
:1024B000002B07D01323FB1800221A707B691B0224
:1024C0007B6189E77B691800BD4607B090BDC046B7
:1024D000040200203D190000A8040020A4040020EC
:1024E000A0040020851900001C020020200200200A
:1024F000F11D000080B500AF0020034B984703009A
:102500001800BD4680BDC046A523000080B586B03A
:1025100000AF0200FB1D1A70FB1D00221A70274B32
:10252000984703003B61FB1D1A780F23FB182449D1
:102530008A5C1A70FB1D19780F23FB181A78214B3F
:1025400049008A185200D35A7B617A69A0235B0044
:102550009A4225D1FB1D1B781B4AD35CDBB20122BA
:102560005340DBB2002B1BD0FB1D1B78174AD35CFA
:10257000DBB201225340DBB2002B11D0FB1D1B78D4
:10258000124A0121D154FB1D1B780F22BA18127870
:1025900051424A41D2B21100094AD15400237B6111
:1025A0007B69A0225200D31ABB603B691800084B1C
:1025B0009847BB681800BD4606B080BD3D190000B5
:1025C00034070020300700203C070020400700208F
:1025D0008519000080B582B000AF0200FB1D1A70A3
:1025E000FB1D1B781800054B984703005A1E9341AA
:1025F000DBB21800BD4602B080BDC0460D2500000C
:10260000F0B587B000AF02003960FB1D1A70FB1DEA
:1026100000221A70FB1D1A7839491300DB009B1A3F
:10262000CB1806331A781723FB18093A51424A414E
:102630001A70FB1D1B781800324B984703001A00D4
:1026400001235340DBB2002B10D02F4B1B78DBB2A1
:1026500001225340DBB2002B01D000234BE01723B3
:10266000FB181722BA1812781A70E2E7274B98471E
:1026700003003B61FB1D1A780F23FB1824498A5C79
:102680001A70FB1D19780F23FB181878FB1D1A7898
:102690000F23FB181B781F4C5500ED186D002C5BA9
:1026A000651CAEB21B4D5200D3185B00321C5A534E
:1026B00025003B68DEB2184C02009200121893010C
:1026C0001A000B009B005B18DB01D318E318321CC7
:1026D0005A553B691800114B98471723FB181B7874
:1026E000002B07D01723FB1800221A703B681B121F
:1026F0003B609EE701231800BD4607B0F0BDC04611
:1027000004020020D52500001C0200203D19000015
:102710003407002030070020B00400208519000095
:1027200080B582B000AF78607B6819000020034B51
:10273000984703001800BD4602B080BD0126000086
:1027400080B500AF074B1B681A68064B1B681B68F7
:102750009978DB781B020B439BB2D3181800BD4657
:1027600080BDC0465007002080B584B000AF7860BF
:102770000A00FB1C1A70144B98470300FB607B682F
:102780001B781A007B689B187B6011E07B685B7884
:10279000042B12D07B685B78FA1C12789A4201D124
:1027A0007B680CE07B681B781A007B689B187B6059
:1027B000FA687B689A42E9D800E0C0460023180016
:1027C000BD4604B080BDC0464127000080B584B03E
:1027D00000AF0200FB1D1A70BB1D0A1C1A70204BB3
:1027E0001B78002B01D1002336E01E4B1B681B68B1
:1027F0001B79FA1D12789A4201D300232CE0194B61
:102800001B681A68184B1A60184B98470300FB6046
:102810001CE0154B1B685B78042B0FD1124B1B6817
:102820009B78FA1D12789A4208D10F4B1B68DB780F
:10283000BA1D12789A4201D101230DE00A4B1A68A1
:10284000094B1B681B78D218074B1A60064B1B6894
:10285000FA689A42DDD800231800BD4604B080BD56
:102860004C0700205007002054070020412700009B
:1028700080B584B000AF0200FB1D1A70FB1D1B78F1
:1028800000211800214B984703001A0001235340F0
:10289000DBB2002B01D0002334E01D4B1B685A68CB
:1028A000FB1D1B789B00D3181B68BB60BB68DB68F3
:1028B000984703001A00FB1D1B7811001800134BEA
:1028C000984703001A0001235340DBB2002B01D0CC
:1028D000002317E00F4B1B68FB60FB680521180005
:1028E0000D4B98470300FB60FB68002B05D0FB688D
:1028F0009B781800094B9847EFE7C046BB685B68B8
:10290000984701231800BD4604B080BDCD270000C4
:10291000500700205407002069270000B14A00003A
:1029200080B584B000AF0200FB1D1A70BB1D0A1CED
:102930001A70BB1D1A78FB1D1B78110018001F4B65
:10294000984703001A0001235340DBB2002B01D04B
:1029500000232EE01A4B1B68FB60FB680521180062
:10296000184B98470300FB60FB68002B15D0FB68F1
:102970009878FB68D978FB681A795B791B02134356
:102980009BB21A00104B984703001A0001235340D2
:10299000DBB2002BE1D000230BE0C0460B4B1B68E1
:1029A0005A68FB1D1B789B00D3181B681B6898474F
:1029B00003001800BD4604B080BDC046CD2700000E
:1029C00054070020692700003D4B000050070020FD
:1029D00080B500AF024B9847C046BD4680BDC0469B
:1029E0001159000080B582B000AF124B1B78002B4C
:1029F00015D0FB1D00221A7009E0FB1D1B78180082
:102A00000D4B9847FB1D1A78FB1D01321A700B4BBA
:102A10001B681B681B79FA1D12789A42EDD3054B8F
:102A200000221A70064B01221A80C046BD4602B031
:102A300080BDC0464C0700207128000050070020D0
:102A40004407002080B582B000AF174B1B78002BE5
:102A500025D0FB1D00221A7019E0144B1B685A6820
:102A6000FB1D1B789B00D3181B681B69002B09D02A
:102A70000E4B1B685A68FB1D1B789B00D3181B6804
:102A80001B699847FB1D1A78FB1D01321A70074B12
:102A90001B681B681B79FA1D12789A42DDD3C04669
:102AA000BD4602B080BDC0464C0700205007002044
:102AB00080B500AF074BDB88022B01D0002305E077
:102AC000054B02211800054B984701231800BD460D
:102AD00080BDC0467C140020440700204551000002
:102AE00080B500AF0C4BDB88022B01D000230FE038
:102AF000094B9B88DBB21800084B984703009AB239
:102B0000074B1A80064B02211800064B98470123F9
:102B10001800BD4680BDC0467C140020E54C000076
:102B2000580700204551000080B500AF0B4BDB88F3
:102B3000002B01D000230DE0084B5B88012B08D14E
:102B4000074B1B88022293439AB2054B1A8001233C
:102B500000E000231800BD4680BDC0467C14002064
:102B60004407002080B500AF0A4BDB88002B01D062
:102B700000230CE0074B5B88002B07D1054B9B889B
:102B8000DBB21800044B9847030000E00023180054
:102B9000BD4680BD7C140020694D000080B500AFAB
:102BA000084BDB88002B01D0002307E0054B5B8836
:102BB000012B02D0C046002300E000231800BD46D0
:102BC00080BDC0467C14002080B500AF0D4BDB8873
:102BD000002B01D0002312E00A4B5B88002B0DD1A3
:102BE000084B9B88DBB21800074B9847054B9B8826
:102BF000DBB21800054B9847030000E000231800E3
:102C0000BD4680BD7C140020FD490000114D000030
:102C100080B500AF054B5B88DBB27F221340DBB28F
:102C20001800034B9847C046BD4680BD7C14002069
:102C3000FD50000080B500AF064BDB88002B01D0B3
:102C4000002303E0034B044A1A6101231800BD4628
:102C500080BDC0467C140020112C000080B584B0DB
:102C600000AFFB1D00221A702D4B5B881A00FF235A
:102C70001340012B09D0022B0DD0002B11D1294B71
:102C800004211800284B98470DE0FB1D09221A70FB
:102C9000264BBB6007E0FB1D03221A70244BBB6070
:102CA00001E0002337E0FB1D1B78002B32D00F23FF
:102CB000FB1800221A7016E00F23FB181B780F2256
:102CC000BA181278B9688A18127891B2194A5B005A
:102CD000D31802330A1C1A800F23FB181A780F230B
:102CE000FB1801321A700F23FA18FB1D12781B789B
:102CF0009A42E1D3FB1D1B780133DBB2DB18DAB259
:102D00000C4B1A700B4B1B789AB20A4B110018002F
:102D1000054B984701231800BD4604B080BDC0464E
:102D20007C1400204C000020455100005000002081
:102D30005C0000206000002080B582B000AF394BFD
:102D40005A88FB1D1A70374B5B881B0A9BB2DBB29B
:102D5000022B13D002DC012B05D051E0032B44D011
:102D60000F2B2FD04CE0304B1A682F4B1B681B7871
:102D70009BB2190010002D4B984744E02A4B1B686A
:102D80005B7CFA1D12789A4201D3002346E0264B61
:102D90005A68FB1D1B78DB00D3181868224B5A6851
:102DA000FB1D1B78DB00D3181B689A78DB781B02AD
:102DB00013439BB219001D4B98471A4B9B68022284
:102DC0005A7020E0184B9B68002B01D1002325E0AE
:102DD000154B9868144B9B689A78DB781B02134359
:102DE0009BB21900114B98470DE0114B9847030017
:102DF0001A0001235340DBB2002B03D000230DE067
:102E000000230BE0C046074BDA88064B9B899A42A9
:102E100003D2044BDA88034B9A8101231800BD4684
:102E200002B080BD7C1400207001002045510000DC
:102E30005D2C000080B500AF074BDB88012B01D073
:102E4000002305E0054B01211800054B984701239D
:102E50001800BD4680BDC0467C1400204C070020F1
:102E60004551000080B582B000AF2A4BDB88002BB3
:102E700001D000234AE0284B9847031E01D10023CC
:102E800044E0244B5B881A00FF231A40234B1B6845
:102E90005B7C9A4201DD002338E0214B98471D4BB3
:102EA0005B88DAB21F4B1A701E4B1B78002B01D1C6
:102EB00001232BE0194B5A681A4B1B781A498C4690
:102EC0006344DB00D218194B1A60FB1D00221A70F4
:102ED00013E0FB1D1B7800211800154B98470300D9
:102EE0001A0001235340DBB2002B01D000230DE078
:102EF000FB1D1A78FB1D01321A700C4B1B681B68F6
:102F00001B79FA1D12789A42E3D301231800BD46BB
:102F100002B080BD7C140020295100007001002007
:102F2000E52900004C070020FFFFFF1F500700208D
:102F30002129000080B582B000AF214BDB88012B36
:102F400001D0002338E01F4B1B78002B01D1002358
:102F500032E01B4B9A88FB1D1A701B4B1B681B68C9
:102F60001B79FA1D12789A4201D3002324E0FB1D3D
:102F70001B7800211800154B984703001A00012305
:102F80005340DBB2002B01D0002315E00E4B1B6831
:102F90005A68FB1D1B789B00D3181B683B603B687D
:102FA000DB68984703001A00094B1A70084B01218F
:102FB0001800084B984701231800BD4602B080BD99
:102FC0007C1400204C07002050070020CD27000073
:102FD000480700204551000080B582B000AF174B74
:102FE000DB88002B01D0002324E0154B1B78002B3D
:102FF00001D100231EE0114B9A88FB1D1A700F4B64
:103000005A88BB1D1A70FB1D1B7818000D4B984782
:1030100003001A0001235340DBB2002B01D0002330
:1030200008E0BB1D1A78FB1D1B7811001800064B29
:10303000984703001800BD4602B080BD7C140020F4
:103040004C070020712800002129000080B500AF46
:10305000474B1B785BB2002B40DA454BDB88002BDB
:1030600001D1002381E0424B1B781A001F2313403B
:1030700014D13F4B5B78062B08D0082B0AD0002BCD
:1030800000D00BE03B4B984703006EE03A4B98476B
:1030900003006AE0394B9847030066E0344B1B7825
:1030A0001A001F231340012B08D1314B5B780A2BE8
:1030B00000D003E0324B9847030056E02C4B1B78BE
:1030C0001A001F231340022B4ED1294B5B78002B93
:1030D00000D049E02B4B9847030046E0244B1B7877
:1030E0001A001F23134019D1214B5B78092B14D8E8
:1030F0009A00254BD3181B689F46244B9847030022
:1031000033E0234B984703002FE0224B98470300FE
:103110002BE0214B9847030027E0C046144B1B7857
:103120001A001F231340012B08D1114B5B780B2B86
:1031300000D003E0194B9847030016E00C4B1B78B6
:103140001A001F231340022B0ED1094B5B78012B71
:1031500002D0032B04D007E0114B9847030004E092
:10316000104B9847030000E000231800BD4680BDC7
:103170007C140020B12A0000392D0000352E0000FB
:10318000352F0000E12A0000B4510100352C000069
:10319000292B00009D2B0000652E0000D92F000078
:1031A000652B0000C92B000080B582B000AF244B16
:1031B0001B78002B01D100233DE0224B9A88FB1D98
:1031C0001A70214B1B681B681B79FA1D12789A42F2
:1031D00001D300232FE0FB1D1B78002118001B4B9F
:1031E000984703001A0001235340DBB2002B01D0A3
:1031F000002320E0144B1B685A68FB1D1B789B00C2
:10320000D3181B683B603B68DB68984703001A00D3
:10321000FB1D1B78110018000C4B984703001A0087
:1032200001235340DBB2002B01D0002303E03B68B5
:103230009B68984703001800BD4602B080BDC04699
:103240004C0700207C14002050070020CD270000F0
:1032500080B582B000AF224B1B78002B01D1002338
:1032600039E0204B9A88FB1D1A70FB1D00221A7052
:1032700028E01D4B1B685A68FB1D1B789B00D31868
:103280001B683B603B68DB68984703001A00FB1D26
:103290001B7811001800154B984703001A000123F2
:1032A0005340DBB2002B01D0002314E03B689B6845
:1032B0009847031E01D001230DE0FB1D1A78FB1D6A
:1032C00001321A70084B1B681B681B79FA1D1278B3
:1032D0009A42CED300231800BD4602B080BDC0463E
:1032E0004C0700207C14002050070020CD27000050
:1032F00080B500AF1E4B00229A811D4B00221A613F
:103300001B4B00225A611A4B1B785BB2002B05DA6B
:10331000174BDB88002B01D1002326E0144B1B78D0
:103320001A006023134005D1124B9847031E01D0A9
:1033300001231AE00E4B1B781A001F231340012BA8
:1033400005D10D4B9847031E01D001230DE0084B1A
:103350001B781A001F231340022B05D1074B9847F7
:10336000031E01D0012300E000231800BD4680BDEC
:103370007C1400204D300000A931000051320000C3
:1033800080B582B000AF78600A00FB1C1A700C4B4D
:103390001B7801225340DBB2002B01D000230BE04D
:1033A000FB1C1B781800074B9847031E01D0002315
:1033B00001E001235B42C0461800BD4602B080BD5B
:1033C0005A0700202127000080B582B000AF786046
:1033D00039600A4B1B7801225340DBB2002B03D02B
:1033E0003B6800221A7005E0054B98470300DAB2EB
:1033F0003B681A70BD4602B080BDC0465A07002027
:10340000F524000080B500AF034B01221A700123A0
:103410001800BD4680BDC0465A07002080B500AFE9
:10342000024B00221A70C046BD4680BD5A070020DC
:1034300080B500AF0D4B00221A600D4B0D4A1A608B
:103440000D4B0E4A1A600E4B98470E4B1B689B683B
:10345000002118000C4B98470A4B1B685B68002141
:103460001800094B9847C046BD4680BDDC140020BB
:10347000D814002081330000D4140020C933000088
:10348000D1290000E0010020F92A010080B582B0B6
:1034900000AF78607B6800221A70C046BD4602B05B
:1034A00080BDC04680B582B000AF02003960FB1D10
:1034B0001A70FB1D1B78012B0AD0022B0FD0002B9A
:1034C00014D10E4B0D4A91693A680A439A610FE094
:1034D0000A4B0A4AD1693A680A43DA6108E0074BA5
:1034E000064A116A3A680A431A6201E0172300E0AB
:1034F00000231800BD4602B080BDC0460004004055
:1035000080B582B000AF0200FB1D1A70064BFA1D99
:10351000127811001F220A40012191400A001A600E
:10352000C046BD4602B080BD00E100E080B582B07B
:1035300000AF0F4B3B6000237B6011E07B689B007A
:1035400008229446BC446344083B1B685B78DBB2AA
:103550005BB2002B01DA012306E07B6801337B605C
:103560007B68002BEAD000231800BD4602B080BD66
:103570000018004080B584B000AF2D4B7B60402127
:1035800000202C4B98473B0018002B4B98473B00E2
:1035900000221A703B0019000520284B984705208F
:1035A000274B98470023FB6018E0FB689B00102224
:1035B0009446BC4463440C3B1A68FB689B00102192
:1035C0008C46BC4463440C3B1B681B78DBB2012176
:1035D0000B43DBB21370FB680133FB60FB68002B0D
:1035E000E3D0C046174B9847031EFBD10B23FB18B3
:1035F00000221A700DE00B23FB181A78124B920070
:103600000021D1500B23FB181A780B23FB18013231
:103610001A700B23FB181B780F2BECD904200B4BD3
:1036200098470B4B9847C046BD4604B080BDC04686
:1036300000180040A53400008D340000051C010076
:10364000491C01002D350000141200200135000036
:103650005536000080B582B000AF154B3B600023AB
:103660007B6018E07B689B0008229446BC4463445E
:10367000083B1A687B689B0008218C46BC44634465
:10368000083B1B681B78DBB202210B43DBB21370D3
:103690007B6801337B607B68002BE3D0C046054B21
:1036A0009847031EFBD1C046BD4602B080BDC04650
:1036B000001800402D35000080B582B000AF786062
:1036C0007B6800221A70C046BD4602B080BDC0466D
:1036D00080B582B000AF02003960FB1D1A70FB1D7F
:1036E0001B78012B0AD0022B0FD0002B14D10E4BCC
:1036F0000D4A91693A680A439A610FE00A4B0A4AF7
:10370000D1693A680A43DA6108E0074B064A116A50
:103710003A680A431A6201E0172300E00023180008
:10372000BD4602B080BDC0460004004080B582B0F6
:1037300000AF78607B6880221A707B6800225A7024
:103740007B6801229A707B680022DA70C046BD4611
:1037500002B080BD80B500AF054B9B78DBB21A008C
:10376000022313405A1E9341DBB21800BD4680BDB0
:103770000020004180B584B000AF78607B681B6892
:10378000FB60FB68DB69072213405A1E9341DBB2E2
:103790001800BD4604B080BD80B582B000AF78602F
:1037A000C0467B681800044B9847031EF9D1C046F9
:1037B000BD4602B080BDC0467537000080B584B0FC
:1037C00000AF78607B681B68FB607B681800064B65
:1037D0009847FB681B68022293431A00FB681A6033
:1037E000C046BD4604B080BD9937000090B593B087
:1037F00000AF786039603F23FB1800221A707B68A5
:103800001B683B637B681B68FB622B23FC18FB6A0D
:1038100018008D4B9847030023700C23FB181800E9
:103820008A4B98473B68DB69BB633B681B6A7B63D9
:10383000BB6B002B06D1FB6A00211800844B984714
:103840000300BB63BB6BDAB20C23FB181A700C23AA
:10385000FB1802225A70BB6B1B0CDBB20C22BA188D
:10386000110018007B4B98477B6B002B06D1FB6A3D
:1038700001211800764B984703007B637B6BDAB21B
:103880000C23FB181A700C23FB1802225A707B6B56
:103890001B0CDBB20C22BA18110018006D4B9847B4
:1038A0003B689A8A7B68DA803B68DA8A7B681A818F
:1038B0003B681B7E002B03D1674B9847031E02D049
:1038C00080237B6401E000237B643B681B69002B41
:1038D00004D03B681B697A6C13437B643B689B682C
:1038E0007A6C13437B643B6824229B5C002B04D0DE
:1038F0007B6C8022D20513437B643B689B6A002B60
:1039000004D03B689B6A7A6C13437B643B682C222F
:103910009B5C002B04D07B6C8022120513437B64DC
:103920003B682D229B5C002B04D07B6C8022120410
:1039300013437B643B682E229B5C002B04D07B6C82
:103940008022D20313437B643B6B1A687B6C1A435F
:103950003B6B1A603B6B802252005A602B23FB1892
:103960001B781433DBB218003C4B984703007B6292
:103970003B681B68FA22920053433B623B681B8EF4
:10398000FB617B6AFA695A43354B36491000984708
:1039900003000A333A6A53437A6AD31ABB613B6A1B
:1039A0005B007B61BA697B69D3185A1E2E4B79691B
:1039B0001000984703003B613B69FF2B02DC3B6929
:1039C000002B04DA3F23FB1840221A7024E02B233B
:1039D000FB181B781433DBB21800204B984701000A
:1039E0003B685B68FA22D2005343CB18581E3B68F1
:1039F0005B68FA22D2005A43194B11009847030022
:103A0000013B3B643B6CFF2B02DC3B6C002B03DA7D
:103A10003F23FB1840221A703F23FB181B78402BD2
:103A20000BD03B69FF221A403B6C1B041900FF239B
:103A30001B040B401A433B6BDA603F23FB181B78D7
:103A40001800BD4613B090BD154300002D3700008F
:103A500059410000F11E010055370000291D0100E9
:103A6000BD21010000CA9A3BD122010080B58AB075
:103A700000AFF860B9607A60FB68BA681A60FB68EA
:103A80001B687B62FB681B681800254B9847030086
:103A90003B623B6A0233FB613B6A1433BB61012228
:103AA000FB699A401300190002201E4B984714230B
:103AB000FB1818001C4B98477B681A7B1423FB18D3
:103AC0001A70BB69DBB21422BA1811001800174B28
:103AD0009847BB69DBB21800154B98477B681B7B86
:103AE00000211800134B98477B6A1B680222134081
:103AF00001D01C2310E07B6A1B680122134001D017
:103B0000052309E07B6A14221A607A68FB681100B9
:103B10001800094B984703001800BD460AB080BD45
:103B200015430000D1360000B9360000051C010025
:103B3000491C0100CD400000ED37000080B584B085
:103B400000AF78607B681B68FB607B681800084BDF
:103B500098477B681800074B98477B681800044B10
:103B60009847FB6801221A60C046BD4604B080BD7C
:103B700099370000BD37000080B584B000AF786091
:103B80007B681B68FB60FB681B7EDBB21A000223AC
:103B900013400BD0FB6802221A76FB685B8B9BB24A
:103BA0001A000223134011D0412310E0FB685B8B05
:103BB0009BB21A000423134008D0FB685B68C02244
:103BC00092021A43FB685A60182300E00023180091
:103BD000BD4604B080BDC04680B584B000AF7860FB
:103BE0007B681B68BB600E23FB1800221A800FE065
:103BF0000E23FB180E22BA18128801321A807B6835
:103C00001B890E22BA1812889A4201D312230EE0A1
:103C1000BB681B7EDBB21A000123134006D1BB68D0
:103C20001B7EDBB21A0002231340E1D000231800F0
:103C3000BD4604B080BDC04690B585B000AF786089
:103C40000A00FB1C1A707B681B68FB60FB685B68E2
:103C50008022D2021A43FB685A60FB1C1A78FB6868
:103C60005A620B23FC187B681800074B9847030027
:103C70002370FB6801221A760B23FB181B781800AF
:103C8000BD4605B090BDC046D93B000090B587B099
:103C900000AF786039607B681B68FB601423FB18F9
:103CA0003A6852881A801223FB1800221A80FB6897
:103CB0001B681B01DB0FDBB21A000B23FB18511E24
:103CC0008A411A703B685B7A002B06D03B689A7A6F
:103CD0007B68110018007C4B9847FB685B687B4A47
:103CE0001A40FB685A603B681B7A002B42D03B6845
:103CF0001B885A003B685B7A9B0313431A0080239E
:103D00001B021A43FB685A621723FC187B681800D1
:103D10006F4B984703002370FB685B686B4A1A403F
:103D2000FB685A601723FB181B78002B07D1172359
:103D3000FC187B681800674B984703002370172313
:103D4000FB181B78002B11D13B681B881B0A9BB208
:103D5000782213439BB25A003B685B7A9B03134360
:103D6000012213431A00FB685A620FE01723FB1865
:103D70001B78A5E03B681B885B0001221A433B6867
:103D80005B7A9B0313431A00FB685A621723FC18E3
:103D90007B6818004E4B984703002370FB685B68F4
:103DA0004A4A1A40FB685A601723FB181B78002BFD
:103DB00007D11723FC187B681800464B984703006F
:103DC00023701723FB181B78002B00D075E04BE005
:103DD000FB685B8B9BB21A002023134001D1412367
:103DE0006EE07B68DB7A002B1ED00B23FB181B7860
:103DF00001225340DBB2002B04D01423FB181B8894
:103E0000002B09D00B23FB181B78002B0CD014239C
:103E1000FB181B88012B07D1FB685B688022D2024C
:103E20001A43FB685A601AE07B6818002A4B9847CF
:103E30003B685A681223FB181B8812217918581CFA
:103E40000880D318FA682821525CD2B21A7017235E
:103E5000FC187B6818001E4B98470300237017233B
:103E6000FB181B78002B09D11423FB181B88142284
:103E7000BA18591E1180002BAAD100E0C0467B68F9
:103E80009B7A002B0AD07B681800134B9847FB687D
:103E90005B68C02292021A43FB685A607B68180074
:103EA0000D4B98473B685A681223FB181B88D318A0
:103EB000FA682821525CD2B21A701723FB181B78BB
:103EC0001800BD4607B090BD393C0000FFFFFBFF66
:103ED000D93B0000793B00009937000080B582B0E3
:103EE00000AF786039607B6801229A727B6801229A
:103EF000DA723A687B6811001800034B9847030098
:103F00001800BD4602B080BD8D3C000090B587B062
:103F100000AF786039607B681B68FB601423FB1876
:103F20003A6852881A807B681800514B98473B6862
:103F30005B7A002B06D03B689A7A7B6811001800E8
:103F40004C4B9847FB685B684B4A1A40FB685A60C9
:103F50003B681B7A002B0DD03B681B885A003B68DE
:103F60005B7A9B0313431A0080231B021A43FB68EE
:103F70005A6209E03B681B885A003B685B7A9B03E6
:103F800013431A00FB685A621723FC187B68180059
:103F90003A4B9847030023701723FB181B78002B1C
:103FA00007D11723FC187B681800354B984703008E
:103FB00023701723FB181B78002B52D11223FB18F8
:103FC00000221A8033E0FB685B8B9BB21A0020232F
:103FD000134001D1412347E07B681800244B9847E8
:103FE0003B685A681223FB181B8812217918581C49
:103FF0000880D3181978FB68282299541723FC18D5
:104000007B6818001D4B9847030023701723FB188B
:104010001B78002B15D1FB685B8B9BB21A00042325
:10402000134004D01723FB181E221A700AE0142331
:10403000FB181B881422BA18591E1180002BC2D1FC
:1040400000E0C0467B689B7A002B0AD07B68180092
:10405000074B9847FB685B68C02292021A43FB68D3
:104060005A601723FB181B781800BD4607B090BD97
:1040700099370000393C0000FFFFFBFFD93B0000EF
:10408000793B000080B582B000AF786039607B6812
:1040900001229A727B680122DA723A687B68110009
:1040A0001800034B984703001800BD4602B080BDBE
:1040B0000D3F000080B582B000AF78607B680022C1
:1040C0001A70C046BD4602B080BDC04680B584B0FF
:1040D00000AF0200FB1D1A70BB1D0A1C1A701A4BA0
:1040E0001B7801225340DBB2002B03D1BB1D1B7890
:1040F000002B1BD00C23FB181800144B98470C23E3
:10410000FB18FA1D12781A700C23FB1819001320E3
:104110000F4B984713200F4B98470B4BFA1D127803
:104120005A70094B01221A70002308E0064B5B7895
:10413000FA1D12789A4201D1002300E01D231800D5
:10414000BD4604B080BDC0465C070020B5400000FD
:10415000051C0100491C010080B582B000AF7860E9
:104160000A00FB1C1A707B684D4A93423FD04C4AB0
:10417000934206D84B4A93420FD04B4A934221D0E8
:1041800089E04A4A934200D15BE0494A934200D118
:104190006CE0484A93423FD07DE0FB1C1B78012B2A
:1041A0000AD002DC002B05D075E0022B06D0032BD1
:1041B00006D070E0404B6FE0404B6DE0404B6BE051
:1041C000404B69E0FB1C1B78012B0AD002DC002B62
:1041D00005D060E0022B06D0032B06D05BE0032362
:1041E0005AE0394B58E0394B56E0394B54E0FB1C50
:1041F0001B78012B0AD002DC002B05D04BE0022BF0
:1042000006D0032B06D046E0324B45E0324B43E06C
:10421000324B41E0324B3FE0FB1C1B78012B0AD0B4
:1042200002DC002B05D036E0022B06D0032B06D093
:1042300031E02C4B30E02C4B2EE02C4B2CE02C4B67
:104240002AE0FB1C1B78012B0AD002DC002B05D0D6
:1042500021E0022B06D0032B06D01CE0254B1BE0EF
:10426000254B19E0254B17E0254B15E0FB1C1B786F
:10427000012B0AD002DC002B05D00CE0022B06D06B
:10428000032B06D007E01F4B06E01F4B04E01F4B3B
:1042900002E01F4B00E000231800BD4602B080BDC5
:1042A0000010004200080042000C004200180042CA
:1042B000001C00420014004203000400030005003B
:1042C00003000600030007000300010003001E00B6
:1042D00003001F00030008000300090003000A0098
:1042E00003000B0003001000030011000300120084
:1042F0000300130003000C0003000D0003000E0078
:1043000003000F000300160003001700030018004D
:104310000300190090B58BB000AF78600C23FB1838
:104320000F4A13CA13C313CA13C300237B620EE0E0
:104330000C23FB187A6A9200D3581A1E7B689A42A3
:1043400002D17B6ADBB206E07B6A01337B627B6A67
:10435000052BEDD900231800BD460BB090BDC0461B
:10436000DC51010080B582B000AFEFF310833B60F9
:104370003B685A425341DBB27B6072B6BFF35F8F3A
:10438000034B00221A707B681800BD4602B080BD46
:104390007C01002080B582B000AF78607B685A1E37
:1043A0009341DBB21800BD4602B080BD80B582B03B
:1043B00000AF78607B681800064B9847031E05D055
:1043C000054B01221A70BFF35F8F62B6C046BD462F
:1043D00002B080BD954300007C01002080B582B012
:1043E00000AF78607B681A687B681B681B899BB28A
:1043F00001218B439BB21381C046BD4602B080BDF4
:1044000080B582B000AF78607B681B689B7A5B06E2
:104410005B0EDBB21800BD4602B080BD80B582B035
:1044200000AF78600A00FB1C1A707B681B68FA1CDE
:104430001278802149420A43D2B29A72C046BD46E0
:1044400002B080BD80B582B000AF78607B681B6829
:104450001B8A9B045B0D9BB21800BD4602B080BD59
:1044600080B582B000AF78607B681B681B8A9BB206
:104470001800BD4602B080BD80B582B000AF786044
:104480000A00FB1C1A707B681A68FB1C1B7803214E
:104490000B40D9B21389081C032101408802054949
:1044A0000B40191C031C0B431381C046BD4602B0D0
:1044B00080BDC046FFF3FFFF80B584B000AF0200AF
:1044C000FB1D1A70FB1D1B780C4AD35CFF2B00D11F
:1044D000FEE70B4B98470300FB60FB1D1B78074A68
:1044E000D25C0132D1B2054AD154FB681800054BA9
:1044F0009847C046BD4604B080BDC0460C1200209F
:1045000065430000AD43000080B584B000AF0200F9
:10451000FB1D1A70FB1D1B780C4AD35C002B00D1CD
:10452000FEE70B4B98470300FB60FB1D1B78074A17
:10453000D25C013AD1B2054AD154FB681800054B50
:104540009847C046BD4604B080BDC0460C1200204E
:1045500065430000AD43000080B500AF0B4B9B8C62
:104560009BB21A002023134007D1C046074BDB68DB
:10457000D0221340D02BF9D105E0C046034BDB68B5
:1045800010221340FAD0C046BD4680BD000800404E
:1045900080B584B000AF0200FB1D1A700C23FA181E
:1045A000174B1000190004231A00164B9847164B9E
:1045B0001B78FA1D12789A421DD0FB1D1B78002B28
:1045C00007D0FB1D1B780C22BA18D35C18000F4BC8
:1045D00098470D4B1B78002B08D00B4B1B781A000B
:1045E0000C23FB189B5C1800094B9847064BFA1DDF
:1045F00012781A7000E0C046BD4604B080BDC046C7
:10460000F4510100E7270100DC070020B944000055
:104610000945000080B582B000AF0200FB1D1A7092
:10462000FB1D1B780F2213405B00FA1D127852B25B
:10463000D2B2D209D2B29B189A1E13009B009B18CB
:104640009B00034A9B181800BD4602B080BDC046BF
:104650006407002090B589B000AF78607B68BB61CB
:104660001723FB18BA6992791A701723FB181B7865
:104670001800544B984703003B610F23FB18172287
:10468000BA1812780F210A401A700C23FB183A69E5
:10469000128A1A800A23FB18BA6952881A803B6969
:1046A000DA680A23FB181B88D2183B69DA603B6979
:1046B000DA683B699B689A4254D03B699B6899B21F
:1046C0003B69DB689AB21E23FB188A1A1A801E23E4
:1046D000FB181B883C4A93420DD90C23FB181A88FF
:1046E00039483A4B110098470B009AB21E23FB1829
:1046F00035498A1A1A803B699B7C02221340DBB23F
:10470000002B0ED01E23FA180C23FB1812881988D0
:104710002F4B100098470B009BB2002B01D10123B7
:1047200000E00023DBB21A1C01231340DAB23B691C
:1047300001210A4090189A7C02218A43111C021C14
:104740000A439A743B695A683B69DB68D2181E2396
:10475000FB181C880F23FB1819781E4823001E4CD9
:10476000A0472BE03B699B7C02221340DBB2002B6D
:1047700011D03B699A7C02218A439A743B695A683A
:104780003B69DB68D2180F23FB1819781148002306
:10479000114CA04712E03B699A7C01218A439A742C
:1047A0003B691B68002B09D03B691C683B69D968D1
:1047B0001723FB181B781A000020A047BD4609B03C
:1047C00090BDC04615460000FF1F00009D2401005B
:1047D000C92201001413002075030100B0B588B090
:1047E00000AF78607B68BB611723FB18BA699279C8
:1047F0001A701723FB181B781800664B98470300A4
:104800003B610F23FB181722BA1812780F210A40B8
:104810001A700C23FB183A69128A1A800A23FB18B3
:10482000BA6912881A803B699B7C04221340DBB270
:10483000002B19D03B695A683B69DB68D4180F23F9
:10484000FB181B78013B9A01534BD5183B699A68BA
:104850000C23FB181988514B100098470B001A00C5
:10486000290020004E4B98473B69DA680A23FB1861
:104870001B88D2183B69DA603B69DA683B699B6840
:104880009A4203D93B699A683B69DA60BB699B88A5
:104890000A22BA1812889A4265D13B69DA683B69E4
:1048A0009B689A425FD03B699B6899B23B69DB6821
:1048B0009AB21E23FB188A1A1A801E23FB181B8823
:1048C000384A93420ED90C23FB181A883548364BC8
:1048D000110098470B009AB21E23FB1831498A1A1F
:1048E0001A8011E01E23FA180C23FB18128819886D
:1048F0002A4B100098470B009AB21E23FB181E216A
:10490000791809888A1A1A801E23FA180C23FB18B2
:1049100012881B889A4216D23B699A7C04210A436A
:104920009A740F23FB181B78013B9A011A4BD2187B
:104930000C23FB181C880F23FB1819781B48230035
:104940001B4CA04722E03B695A683B69DB68D218E0
:104950001E23FB181C880F23FB181978134823000B
:10496000134CA04712E03B699A7C01218A439A7458
:104970003B691B68002B09D03B691C683B69D968FF
:104980001723FB181B781A000020A047BD4608B06B
:10499000B0BDC0461546000054120020C9220100D7
:1049A000E7270100FF1F00009D24010014130020D1
:1049B0002904010080B584B000AF786039603B689D
:1049C000FB600B23FB18FA6892791A700B23FB1813
:1049D0001B785BB2002B04DA3B681800054B984744
:1049E00003E03B681800044B9847C046BD4604B03E
:1049F00080BDC04655460000DD47000090B585B03B
:104A000000AF0200FB1D1A70FB1D1A78144B110039
:104A10001800144B9847FB1D1B781800124B984741
:104A20000300FB60FB689B7C01221340DBB2002B80
:104A300012D0FB689A7C01218A439A74FB681B6838
:104A4000002B0AD0FB681C68FB68D968FB1D1B782B
:104A50001A000120A04700E0C046BD4605B090BD49
:104A600014130020F10001001546000080B500AFCE
:104A700000231800BD4680BD80B500AF034B180071
:104A8000034B984703001800BD4680BD1413002057
:104A90004544000080B500AF034B1800034B984716
:104AA00003001800BD4680BD1413002061440000BF
:104AB00080B584B000AF0200FB1D1A700823FB18FC
:104AC0001800184B98470F23FB18FA1D12780F2176
:104AD0000A401A70FB1D1B781800134B98470823D7
:104AE000FB18FA1D12781A700823FB180022DA70DE
:104AF0000823FA180D4B110018000D4B98470F238F
:104B0000FB181978094B002218000A4B9847FB1D27
:104B10001978064B00221800074B9847C046BD463F
:104B200004B080BDD1FB0000FD490000141300203B
:104B3000F9FB000019F800002DFA000090B587B0CD
:104B400000AF040008001100FB1D221C1A70BB1DE1
:104B5000021C1A703B1D0A1C1A800C23FB1818003B
:104B6000584B98470C23FB18FA1D12781A703B1DFE
:104B70001B88082B04D80C23FB1800225A7045E030
:104B80003B1D1B88102B04D80C23FB1801225A70E4
:104B90003CE03B1D1B88202B04D80C23FB18022271
:104BA0005A7033E03B1D1B88402B04D80C23FB18A4
:104BB00003225A702AE03B1D1B88802B04D80C234B
:104BC000FB1804225A7021E03B1D1A8880235B00E9
:104BD0009A4204D80C23FB1805225A7016E03B1D9C
:104BE0001A8880239B009A4204D80C23FB180622C3
:104BF0005A700BE03B1D1B88334A934204D80C23A8
:104C0000FB1807225A7001E0002357E0FB1D1B78B8
:104C100018002E4B984703007B617B693A1D128870
:104C20001A82BB1DBA1D127803210A401A70BB1DDF
:104C30001B78012B04D10C23FB180222DA7013E03D
:104C4000BB1D1B78022B04D10C23FB180322DA7046
:104C50000AE0BB1D1B78032B04D10C23FB18042294
:104C6000DA7001E0002329E01323FB18FA1D127803
:104C70000F210A401A700C23FA18154B1100180066
:104C8000144B9847031E01D0002317E0124A132348
:104C9000FB1819780E4813000022104CA047FB1D8A
:104CA00019780B4B002218000D4B9847FB1D197803
:104CB000074B012218000A4B984701231800BD46F4
:104CC00007B090BDD1FB0000FF03000015460000B7
:104CD00014130020F9FB0000B549000099F700000B
:104CE00091F8000080B582B000AF0200FB1D1A7081
:104CF000FB1D1A78044B11001800044B9847030061
:104D00001800BD4602B080BD1413002079010100D7
:104D100080B584B000AF0200FB1D1A700F23FB1892
:104D2000FA1D12780F210A401A700F23FB181B7806
:104D3000032B01D900230CE0FB1D1A78074B11004F
:104D40001800074B9847FB1D1B781800054B984728
:104D500001231800BD4604B080BDC04614130020D6
:104D6000ED010100FD49000080B584B000AF0200F4
:104D7000FB1D1A700F23FB18FA1D12780F210A4031
:104D80001A700F23FB181B78032B01D900231DE099
:104D9000FB1D1B7818000F4B98470300BB60FB1DE1
:104DA0001A780D4B110018000C4B9847BB689B7C80
:104DB00001221340DBB2002B07D0BB689A7C012193
:104DC0008A439A74BB681B68984701231800BD4644
:104DD00004B080BD154600001413002049020100F4
:104DE00080B500AF074B05221A70074B80211800D1
:104DF000064B9847044B00211800054B9847C046C6
:104E0000BD4680BD5E07002014130020ED010100A7
:104E10004902010090B589B000AFBA607B600F23F2
:104E2000FB18021C1A700E23FB180A1C1A701D2393
:104E3000FB180F22BA1812780F210A401A701D238E
:104E4000FB181B78032B07D80F23FB181B781800BF
:104E50009F4B9847031E01D0002334E10F23FB181A
:104E60001B7818009B4B98470300BB619A4B9847EF
:104E700003007B61BB699B7C01221340DBB2002BEA
:104E800005D07B691800954B984700231BE1BB694F
:104E90009A7C01210A439A747B6918008F4B9847CA
:104EA000BB69BA685A60BB697A689A60BB690022BC
:104EB000DA60BB693A6B1A60BB690E22BA181278C5
:104EC00001210A4090189A7C02218A43111C021C7D
:104ED0000A439A74BB699A7C04218A439A740F230B
:104EE000FB181B785BB2002B00DB78E0BB699B688A
:104EF000002B3FD0BB699A681E23FB181A801E2323
:104F0000FB181B88764A93420DD9BB691B8A19008E
:104F1000734A744B100098470B009AB21E23FB187B
:104F20006F498A1A1A80BB699B7C02221340DBB24C
:104F3000002B0DD0BB69198A1E23FB181A886A4BF7
:104F4000100098470B009BB2002B01D1012300E019
:104F50000023DBB21A1C01231340DAB2BB69012122
:104F60000A4090189A7C02218A43111C021C0A43B1
:104F70009A7423E0BB699B7C02221340DBB2002BB6
:104F800009D0BB699A7C02218A439A741E23FB18BC
:104F900000221A8012E0BB699A7C01218A439A742C
:104FA000BB691B68002B07D0BB691B680F22BA18AE
:104FB0001278002100209847012384E0BB695A68D9
:104FC0001E23FB181C881D23FB1819784748230053
:104FD000474CA04703005A425341DBB273E0BB6920
:104FE0009B68002B5DD0BB699A681E23FB181A8052
:104FF0001E23FB181B883A4A93420ED9BB691B8AB1
:105000001900374A374B100098470B009AB21E23FD
:10501000FB1833498A1A1A8010E0BB69198A1E23CB
:10502000FB181A88304B100098470B009AB21E23C9
:10503000FB181E21791809888A1A1A80BB691B8AF5
:105040001E22BA1812889A421AD2BB699A7C04218D
:105050000A439A741D23FB181B78013B9A01254BC8
:10506000D218BB691B8A1C001D23FB1819781F4826
:105070002300214CA04703005A425341DBB222E0F7
:10508000BB695A681E23FB181C881D23FB1819785E
:1050900016482300184CA04703005A425341DBB284
:1050A00011E0BB699A7C01218A439A74BB691B6831
:1050B000002B07D0BB691B680F22BA181278002199
:1050C0000020984701231800BD4609B090BDC04696
:1050D000E54C00001546000065430000AD430000AC
:1050E000FF1F00009D240100C922010014130020AD
:1050F00075030100541200202904010080B582B01C
:1051000000AF0200FB1D1A70FB1D1A78044B110042
:105110001800044B9847C046BD4602B080BDC0464B
:10512000141300201D44000080B500AF034B18008D
:10513000034B984703001800BD4680BD14130020A0
:105140000144000080B582B000AF78600A00BB1C4B
:105150001A80054B7A689A60034BBA1C12889A81B0
:10516000C046BD4602B080BD7C14002080B500AFB3
:10517000174B1A78174B1A70154B5A78154B5A70F3
:10518000134BDB789BB21B029AB2114B9B789BB2FC
:10519000D3189AB20F4B5A800D4B5B799BB21B020E
:1051A0009AB20B4B1B799BB2D3189AB2094B9A80D7
:1051B000074BDB799BB21B029AB2054B9B799BB2E2
:1051C000D3189AB2034BDA80C046BD4680BDC046B4
:1051D000941400207C140020B0B500AF094B0322CA
:1051E0001A70094A094B11001800094B9847094BDE
:1051F0009A68064800230021074CA047C046BD46D8
:10520000B0BDC0465E070020941400201413002097
:10521000D90401007C1400207503010090B583B00F
:1052200000AF304B9989304B1A88BB1D8A1A1A80FF
:10523000BB1D1B88002B30D12C4B1A882A4B1B8896
:10524000D3189AB2294B1A80264BDA88274B1B8831
:105250009A4203D0264B1B78002B09D0254B042201
:105260001A70254A254B11001800254B984735E048
:105270001C4B5B69002B10D01A4B5B6998470300ED
:105280001A0001235340DBB2002B06D1164B00223B
:105290001A80BB1D134A92891A80BB1D1B883F2BA5
:1052A00006D9BB1D40221A80114B00221A7002E061
:1052B0000F4B01221A700B4B9B680B4A12889A18ED
:1052C000BB1D1B880D4800210E4CA047064B1A88B9
:1052D000BB1D1B88D3189AB2034B1A80BD4603B07E
:1052E00090BDC0467C1400206207002060070020AB
:1052F000DD0700205E070020941400201413002016
:10530000D90401007503010090B585B000AF786045
:105310007B68BB600E23FB18BA6812881A80454B65
:105320009B891A00444B1B8819000E23FB181B880D
:10533000CB189A4207DA3F4B99893F4B1A880E23C4
:10534000FB188A1A1A803B4B9B683B4A12889818B4
:105350000E23FB181A88394B1900394B9847364BE6
:105360001A880E23FB181B88D3189AB2324B1A8066
:105370000E23FB181B88402B0AD12E4BDB881A000A
:10538000304B1B8819002C4B1B88CB189A421BDC16
:10539000294B1A88274B9A81264B5B69002B10D02A
:1053A000244B5B69984703001A0001235340DBB28A
:1053B000002B06D0244B05221A700020234B98475F
:1053C00035E0234B984732E01A4B9A891A4B1B88D9
:1053D0009A4226D1174B5B69002B06D11A4B052246
:1053E0001A700020194B984721E0124B5B699847CF
:1053F00003001A0001235340DBB2002B06D0124BEE
:1054000005221A700020114B984710E00D4B1A88A6
:10541000094B1B88D3189AB20A4B1A80064B0022FC
:105420001A80064A0B48402300210B4CA047BD467A
:1054300005B090BD7C140020620700209414002069
:10544000E7270100600700205E070020114D0000E3
:10545000D9510000141300202904010090B585B033
:1054600000AF786039603B68FB60294B1B78002BEC
:1054700009D0284B1B69002B02D0264B1B6998478B
:10548000234B00221A70FB681B88082B02D0224B8A
:1054900098473AE0214B9847214B984703001A0060
:1054A00001235340DBB2002B02D01B4B98472CE06A
:1054B000184B1B785BB2002B11DA1A4B00221A80B2
:1054C000194B00221A80124B02221A70174A1848F0
:1054D00040230021174CA047174B984715E00D4B70
:1054E000DB88002B02D1154B98470EE00D4B0022B4
:1054F0001A800D4B00221A80054B01221A700B4AAC
:105500000B48402300210B4CA047BD4605B090BD81
:105510005E0700207C140020E14D00006D5100006A
:10552000F132000060070020620700209414002080
:1055300014130020290401001D520000D95100005D
:1055400080B584B000AF78607B68FB600A4B1B7845
:10555000012B02D1094B98470AE0074B1B78042B1B
:1055600006D1FB689A79064B11001800054B984745
:10557000C046BD4604B080BD5E070020D951000082
:1055800014130020ED01010080B584B000AF7860F5
:105590007B68FB600B4B1B78022B03D1094B042269
:1055A0001A700AE0074B1B78032B06D1FB689A7927
:1055B000054B11001800054B9847C046BD4604B086
:1055C00080BDC0465E07002014130020ED010100DD
:1055D00080B584B000AF786039603B68FB60FB68E1
:1055E0009B795BB2002B04DA3B681800054B9847A7
:1055F00003E03B681800044B9847C046BD4604B022
:1056000080BDC046415500008955000080B582B07C
:1056100000AF786039600F4B1B78012B04D13B68D9
:1056200018000D4B984710E00A4B1B78022B02D153
:105630000A4B984709E00A4B1B69002B02D0084B24
:105640001B699847034B00221A70C046BD4602B042
:1056500080BDC0465E070020095300001D520000B7
:105660007C14002090B585B000AF78600C23FB1847
:105670001800214B98470C23FB1803225A700C2367
:10568000FA187B68110018001C4B98471C4A7B686D
:10569000110018001B4B98471B4B78680222002111
:1056A0001A4CA0471A4B786800220021174CA047DB
:1056B000184B786801220021144CA0477B68022215
:1056C00000211800144B98477B6800220021180025
:1056D000114B98477B680122002118000E4B984718
:1056E0007B68012118000D4B98470D4B00221A7062
:1056F000C046BD4605B090BDD1FB0000F9FB0000DF
:1057000094140020D90401005D54000099F70000B2
:105710000D560000D155000091F8000079440000BA
:105720005E07002080B582B000AF78603960084B1A
:1057300004211800074B9847054B02211800064B1F
:1057400098470120054B9847C046BD4602B080BD32
:105750001413002045F70000E9F600009145000011
:1057600080B584B000AF786039603B68FB600B4B5C
:10577000062118000A4B9847084B04211800084BD3
:105780009847064B02211800064B98470220064B0B
:105790009847C046BD4604B080BDC04614130020E3
:1057A00045F70000E9F600009145000080B582B0A1
:1057B00000AF78603960034B9847C046BD4602B0E1
:1057C00080BDC046452A000080B582B000AF786039
:1057D0003960074B98477B6800211800054B9847B4
:1057E0007B681800044B9847C046BD4602B080BD98
:1057F000E52900001D4400006556000080B582B018
:1058000000AF786039600F4B98470F4B02211800AA
:105810000E4B98470C4B042118000D4B98470D4A2E
:10582000094B062118000C4B9847074B062118001E
:10583000074B98470320094B9847C046BD4602B026
:1058400080BDC046594500001413002045F70000F4
:10585000E9F600006157000099F60000914500004C
:1058600080B500AF0320204B9847204B1800204BF9
:105870009847204A1D4B042118001F4B98471F4A88
:105880001A4B002118001C4B98471D4A174B012149
:105890001800194B98471B4A144B02211800164B4D
:1058A0009847124B04211800174B98470F4B0021C3
:1058B0001800154B98470D4B01211800124B9847C3
:1058C0000A4B02211800104B9847104A074B06213B
:1058D0001800094B9847054B062118000A4B9847BA
:1058E000C046BD4680BDC04691450000141300204F
:1058F000DD4300002557000099F60000AD57000079
:10590000C9570000FD570000E9F60000615700008C
:1059100080B582B000AF124B984703007B603B001C
:105920001800104B98473B0000229A703A000E492D
:105930000E4B18000E4B98470C4B18000D4B984718
:105940000D4B984701200D4B98470D4B98477B68AE
:1059500018000C4B9847C046BD4602B080BDC046FB
:1059600065430000090B01000050004114130020A2
:10597000310B0100A10A01005945000091450000CA
:1059800061580000AD43000080B586B000AFF860FC
:10599000B9607A6000237B61FB68002B12D0012381
:1059A0005B4213E00B4B1A680B4B1B68B96818007D
:1059B0009047BB680133BB607B6901337B617B68C7
:1059C000013B7B607B68002BECDC7B691800BD46EB
:1059D00006B080BDD4140020DC14002080B586B051
:1059E00000AFF860B9607A6000237B61FB68012B2F
:1059F0001DD0FB68022B1AD0FB68032B17D00123A4
:105A00005B4218E00E4B1A680E4B1868BB68591CB5
:105A1000B9601B7819009047031E02DA01235B422C
:105A200009E07B6901337B617B68013B7B607B68BC
:105A3000002BE7D17B691800BD4606B080BDC0468B
:105A4000D8140020DC140020B0B5CE4CA54402AF21
:105A5000F860B9607A603B60002393229200BA1824
:105A600013600023E8225200BA1813600023952225
:105A70009200BA181360FB68002B08D0BB68002B9B
:105A800005D07B68002B02D03B68002B01D102239C
:105A900072E1E8235B00FA18EA235B00F918F86862
:105AA000202300931023B84CA047030093229200B8
:105AB000BA18136093239B00FB181B68002B04D0BB
:105AC00093239B00FB181B6856E13C687A68F968D1
:105AD000DA235B00F818BB6800932300AB4CA047A7
